:020000040800F2
:10000000302100204D0200088529000861270008E2
:100010008129000807050008AD2B0008000000003A
:100020000000000000000000000000008B29000814
:100030004D05000800000000892900088D290008EE
:1000400067020008670200086702000867020008EC
:1000500067020008670200086702000867020008DC
:1000600067020008670200086702000867020008CC
:100070001D05000867020008670200086702000803
:1000800067020008670200086702000867020008AC
:100090000D050008670200086702000867020008F3
:1000A000670200086702000867020008670200088C
:1000B000670200086702000867020008670200087C
:1000C000670200086702000867020008670200086C
:1000D00067020008712A000867020008812A0008E8
:1000E000670200086702000867020008670200084C
:1000F000670200086702000867020008670200083C
:10010000670200086702000867020008670200082B
:10011000670200086702000867020008670200081B
:1001200067020008670200082D0500086702000842
:1001300067020008670200086702000867020008FB
:1001400067020008670200086702000867020008EB
:1001500067020008670200083D0500086702000802
:1001600067020008670200086702000867020008CB
:10017000670200086702000867020008000000002C
:10018000670200086702000800F002F800F04EF86D
:100190000AA090E8000C82448344AAF10107DA45E2
:1001A00001D100F043F8AFF2090EBAE80F0013F0E6
:1001B000010F18BFFB1A43F001031847044F00005A
:1001C000244F00000A4410F8014B14F00F0508BF3B
:1001D00010F8015B240908BF10F8014B6D1E05D013
:1001E00010F8013B6D1E01F8013BF9D1641E03D0EC
:1001F000641E01F8015BFBD19142E4D3704700001B
:100200000023002400250026103A28BF78C1FBD81F
:10021000520728BF30C148BF0B6070471FB504F0BC
:1002200084FE00F015F91FBD10B510BD00F036F9C1
:100230001146FFF7F3FF04F007FC00F054F903B494
:10024000FFF7F2FF03BC00F057F9000009488047B0
:1002500009480047FEE7FEE7FEE7FEE7FEE7FEE7A8
:10026000FEE7FEE7FEE7FEE704480549054A064BC0
:10027000704700009529000889010008301B002004
:1002800030210020301D0020301D002053EA020CD8
:1002900000F069802DE9F04B4FF00006002B1FBFE6
:1002A000B3FA83F503FA05F424FA05F65E4012BFAB
:1002B0001643B2FA82F502FA05F4C5F120051EBF15
:1002C00022FA05FC44EA0C04203556EA044C4FEAB5
:1002D000144418BF641C4FF000084FF0000990420E
:1002E00071EB030C39D3002919BFB1FA81F701FA78
:1002F00007F6B0FA80F700FA07F6C7F120071EBF2D
:1003000020FA07FC46EA0C062037B6FBF4FCA7EB04
:100310000507103F07F01F0BCBF120060CFA0BFB73
:100320002CFA06F644BFB3460026202FA4BF5E4633
:100330004FF0000B5BEA060C08BF4FF0010B19EB06
:100340000B09ABFB027C48EB0608C01B06FB02CC8A
:100350000BFB03CC71EB0C01C1E70B460246414697
:100360004846BDE8F08B13B54FF000004FF0000198
:10037000AFF30080BDE81C4070474FF0000200B5AD
:10038000134694469646203922BFA0E80C50A0E8B8
:100390000C50B1F12001BFF4F7AF090728BFA0E866
:1003A0000C5048BF0CC05DF804EB890028BF40F832
:1003B000042B08BF704748BF20F8022B11F0804F74
:1003C00018BF00F8012B70474FF0013C50F8042B88
:1003D00051F8043B9A4221D1A2EB0C03934313EA58
:1003E000CC1317D150F8042B51F8043B9A4215D185
:1003F000A2EB0C03934313EACC130BD150F8042B5C
:1004000051F8043B9A4209D1A2EB0C03934313EA3F
:10041000CC13DBD04FF00000704700BFD01A01BAF8
:10042000B1FA81F101F0180122FA01F0CB40C1F1DB
:100430002001DBB2C0B2C01A2CFA01F3D11A9143E9
:1004400011EAC311E6D1704770477047704700004A
:1004500070B5064C7C44064D7D4403E02068204482
:100460008047241DAC42F9D170BD0000884C0000CB
:10047000884C000010B500F009F8006810BD10B5F8
:10048000044600F003F8046010BD00000048704707
:10049000D01A002000487047D01A00207546FFF798
:1004A000F9FFAE4605006946534620F00700854631
:1004B00018B020B5FFF7D8FEBDE820404FF0000689
:1004C0004FF000074FF000084FF0000B21F007013C
:1004D000AC46ACE8C009ACE8C009ACE8C009ACE87F
:1004E000C0098D46704710B50446AFF30080204622
:1004F000BDE81040FFF7A3BE01491820ABBEFEE7E0
:1005000026000200704700BFFEE7000010B5024859
:1005100000F037FA10BD00008407002010B5024833
:1005200000F0C6FD10BD00002409002010B50248EF
:1005300000F0BEFD10BD0000C408002010B5024848
:1005400000F0B6FD10BD000064080020704772B6D0
:1005500000BFFEE710B5024692F82030012B01D013
:10056000022B06D1106840690843146860610020BE
:1005700010BD506A40F4802050620120F8E7F0B5C9
:1005800004460D461E4694F8207020688368A868CB
:1005900000B900E000BF012F01D0022F7DD103F090
:1005A000806030B903F0006018B903F08050002873
:1005B0007ED0C3F30161012088403060A86860B933
:1005C000B5F800C0E86840EA4C5C206800F5C070EF
:1005D00000EB0110C0F800C00FE0D5E901C040EA0F
:1005E000CC00D5F80CC040EA0C00D4F800C00CF5E3
:1005F000C07C0CEB011CCCF80000D5F810C02068C2
:1006000000F5C07000EB0110C0F804C0287D01287F
:100610000ED1206800F5C07000EB0110406840F476
:10062000807C206800F5C07000EB0110C0F804C0A9
:10063000D079000692F806C040EA0C4092F805C056
:1006400040EA0C2092F804C040EA0C00D4F800C044
:100650000CF5C07C0CEB011CCCF80C00D07800062B
:1006600092F802C040EA0C4092F801C040EA0C2027
:1006700092F800C040EA0C00D4F800C00CF5C07C31
:100680000CEB011CCCF80800206800F5C07000EBF2
:100690000110006840F0010C01E00FE008E0206864
:1006A00000F5C07000EB0110C0F800C00020F0BDE4
:1006B000606A40F4001060620120F8E7606A40F46C
:1006C000802060620120F2E7F0B504460A46216806
:1006D00094F82050012D01D0022D7ED1424901F520
:1006E0000071086840F001000860086820F47C5040
:1006F00008600868566A40EA06200860107D00F02D
:100700001F06012000FA06F3C8699843C861A1F5E5
:100710000071D069C8B9D1F80C029843C1F80C0235
:10072000908880B2968940EA064601F510705769B4
:1007300040F83760108880B2168940EA064601F515
:100740001070576900EBC7004660D069012819D1C5
:10075000D1F80C021843C1F80C02908880B21688B8
:1007600040EA064601F51070576940F837609089F5
:1007700080B2168940EA064601F51070576900EB11
:10078000C7004660906928B9D1F804029843C1F8BF
:10079000040204E0D1F804021843C1F8040210690D
:1007A00028B9D1F814029843C1F8140204E0D1F832
:1007B00014021843C1F81402106A012804D1D1F8B8
:1007C0001C021843C1F81C02D1F8000220F00100FD
:1007D000C1F800020020F0BDFFE7606A40F480200D
:1007E00060620120F7E7000000640040704770B5C8
:1007F000044694F82050012D01D0022D7DD151B92D
:100800002068C06800F0030080B9606A40F40010FE
:100810006062012070BD2068006900F0030028B903
:10082000606A40F4001060620120F3E7206800F580
:10083000D87000EB0110006800F004009060906830
:1008400040B9206800F5D87000EB01100068400D39
:10085000106007E0206800F5D87000EB0110006818
:10086000C0085060206800F5D87000EB01100068E7
:1008700000F00200D060206800F5D87000EB011095
:10088000406800F00F00082802D30820106108E03B
:10089000206800F5D87000EB0110406800F00F00F0
:1008A0001061206800F5D87000EB0110406800F47A
:1008B0007F40000A9061206800F5D87000EB0110BD
:1008C0004068000C5061206800F5D87000EB011002
:1008D00080681870206800F5D87000EB01108068FF
:1008E00000F47F40000A5870206800F5D87000EBD3
:1008F0000110806800F47F0000E03CE0000C98707C
:10090000206800F5D87000EB01108068000ED870E8
:10091000206800F5D87000EB0110C06818712068DD
:1009200000F5D87000EB0110C06800F47F40000AA9
:100930005871206800F5D87000EB0110C06800F411
:100940007F00000C9871206800F5D87000EB011052
:10095000C068000ED87131B92068C06840F020002E
:100960002668F06005E02068006940F020002668F5
:10097000306100204EE7606A40F480206062012010
:1009800048E72DE9F05F04460025206846692068A5
:10099000D0F80490206887682068D0F80CA0206800
:1009A000D0F810B02068D0F8188006F001000028B8
:1009B00055D007F00100C0B101202168886007F020
:1009C000020018B1204600F002FB0EE007F0040020
:1009D00010B145F4006508E007F0080010B145F4D7
:1009E000805502E0204600F0F1FA07F48070C8B1AB
:1009F0004FF480702168886007F4007018B12046B9
:100A000000F0E7FA0EE007F4806010B145F40055FD
:100A100008E007F4006010B145F4804502E020468C
:100A200000F0D6FA07F48030C8B14FF48030216866
:100A3000886007F4003018B1204600F0CCFA0EE0D0
:100A400007F4802010B145F4004508E007F40020C9
:100A500010B145F4803502E0204600F0BBFA06F004
:100A6000080038B10AF0100020B145F400751020DC
:100A70002168C86006F0040040B10AF0080028B1FF
:100A800008202168C860204600F004FA06F0020041
:100A900038B12068C06800F0030010B1204600F0B3
:100AA000FBF906F0400038B10BF0100020B145F41E
:100AB000806510202168086106F0200040B10BF02D
:100AC000080028B1082021680861204600F04CFA8F
:100AD00006F0100038B12068006900F0030010B182
:100AE000204600F042FA06F4003040B109F0100050
:100AF00028B1102021684860204600F037FA06F43B
:100B0000803040B109F0080028B108202168486011
:100B1000204600F061FA06F4004088B309F00400B2
:100B200078B306F4807020B108F0010008B145F0F8
:100B3000010506F4007020B108F0020008B145F08C
:100B4000020506F4806020B108F0040008B145F009
:100B5000040506F40060A0B108F0700088B108F048
:100B60007000402817D006DC10280BD020280CD0AD
:100B7000302819D10CE0502810D0602814D110E092
:100B80001DE019E045F008050FE045F010050CE008
:100B900045F0200509E045F0400506E045F08005F8
:100BA00003E045F4807500E000BF00BF2068806965
:100BB00020F07000216888610420216848602DB110
:100BC000606A284360622046FFF710FEBDE8F09F90
:100BD00070B504460CB9012070BD94F8200010B91E
:100BE000204600F0AFF82068006840F0010021685E
:100BF000086000F04BFD05460DE000F047FD401B8E
:100C00000A2808D9606A40F400306062052084F840
:100C100020000120E0E72068406800F00100002883
:100C2000EBD02068006820F002002168086000F026
:100C30002DFD05460DE000F029FD401B0A2808D9CE
:100C4000606A40F400306062052084F820000120D2
:100C5000C2E72068406800F002000028EBD1207E47
:100C6000012806D12068006840F0800021680860F3
:100C700005E02068006820F0800021680860607E40
:100C8000012806D12068006840F040002168086013
:100C900005E02068006820F0400021680860A07E20
:100CA000012806D12068006840F020002168086013
:100CB00005E02068006820F0200021680860E07EE0
:100CC000012806D12068006820F010002168086023
:100CD00005E02068006840F0100021680860207F6F
:100CE000012806D12068006840F0080021680860EB
:100CF00005E02068006820F0080021680860607F37
:100D0000012806D12068006840F0040021680860CE
:100D100005E02068006820F0040021680860D4E93C
:100D20000201084321690843616908436168491E5B
:100D300008432168C86100206062012084F8200017
:100D4000002049E710B586B00446142101A8FFF73A
:100D500014FB4A492068884241D149480068401C38
:100D6000474908600846006801280FD100BF0020ED
:100D700000904448006840F000704249086008460E
:100D8000006800F00070009000BF00BF00BF0020AE
:100D900000903C481038006840F00800394910398C
:100DA00008600846006800F00800009000BF00BF1F
:100DB0000320019002200290002003900320049061
:100DC0000920059001A9304800F066FB0022114679
:100DD000142000F0E9FC142000F0D2FC4CE02B4978
:100DE0002068884248D100BF002000902548006854
:100DF00040F08060234908600846006800F0806089
:100E0000009000BF00BF1E480068401C1C490860DD
:100E10000846006801280FD100BF00200090194843
:100E2000006840F00070174908600846006800F04C
:100E30000070009000BF00BF00BF0020009011486C
:100E40001038006840F002000E491039086008466A
:100E5000006800F00200009000BF00BF6020019019
:100E600002200290002003900320049009200590A6
:100E700001A9074800F010FB06B010BD0064004057
:100E80002C02002040380240000C02400068004064
:100E9000000402407047000010B58AB0044601AB60
:100EA00003AA00212046FFF7A2FC0398A0F201202C
:100EB000072851D2DFE800F00405060708090A00F8
:100EC00000BF00BF00BF00BF00BF00BF0398401EAF
:100ED000234908700846007800EB8000214931F86A
:100EE000100000B21E49097801EB81011D4A02EB96
:100EF000410108819DF805009DF8041040EA012099
:100F00001749097801EB810122F811009DF80700CB
:100F10009DF8061040EA012000B21149097801EB62
:100F2000810102EB410148809DF809009DF80810FD
:100F300040EA012000B20A49097801EB810102EB85
:100F4000410188809DF80A000549097801EB81017B
:100F500002EB4101887100E000BF00BF0AB010BD84
:100F600054020020581A002070477047704770B52F
:100F7000044694F82000012822D1022084F82000A1
:100F80002068006820F001002168086000F07EFB06
:100F900005460DE000F07AFB401B0A2808D9606A7C
:100FA00040F400306062052084F82000012070BD0C
:100FB0002068406800F001000028EBD16062F6E78D
:100FC000606A40F4002060620120F0E770477047DB
:100FD0007047704770477047704770B50446A56DFD
:100FE00000F054FB064694F83500022808D0802013
:100FF000606500BF002084F8340000BF012070BD90
:101000002068006820F016002168086020684069A8
:1010100020F0800021684861206C08B9A06C28B1DC
:101020002068006820F008002168086020680068D7
:1010300020F001002168086010E000F027FB801B11
:1010400005280BD920206065032084F8350000BFF7
:10105000002084F8340000BF0320D0E72068006837
:1010600000F001000028E8D194F85C103F2088408F
:10107000A860012084F8350000BF002084F8340007
:1010800000BF00BFBBE7014691F83500022803D03E
:101090008020486501207047052081F835000868E8
:1010A000006820F001000A6810600020F3E70000EB
:1010B000F8B50446002000908C4800684FF41651A3
:1010C000B0FBF1F7A56D2E6894F85C1008208840FD
:1010D000304098B12068006800F0040070B12068CA
:1010E000006820F004002168086094F85C10082073
:1010F0008840A860606D40F00100606594F85C1065
:1011000001208840304068B12068406900F08000CC
:1011100040B194F85C1001208840A860606D40F0F8
:101120000200606594F85C1004208840304068B18B
:101130002068006800F0020040B194F85C100420C0
:101140008840A860606D40F00400606594F85C1011
:1011500010208840304078B32068006800F0080014
:1011600050B394F85C1010208840A8602068006894
:1011700000F4802080B12068006800F4002028B9C5
:10118000206CC8B12046216C884715E0A06C98B14E
:101190002046A16C88470FE02068006800F480704A
:1011A00028B92068006820F0080021680860206CD9
:1011B00010B12046216C884794F85C1020208840AC
:1011C0003040002865D02068006800F0100000283A
:1011D0005FD094F85C1020208840A86094F8350017
:1011E000052828D12068006820F0160021680860D2
:1011F0002068406920F0800021684861206C08B9AF
:10120000A06C28B12068006820F008002168086000
:1012100094F85C103F208840A860012084F83500D5
:1012200000BF002084F8340000BF206D10B12046BC
:10123000216D8847F8BD2068006800F4802080B1E7
:101240002068006800F4002028B9606C10B12046C6
:10125000616C88471DE0E06BD8B12046E16B8847A0
:1012600017E02068006800F4807068B920680068A2
:1012700020F0100021680860012084F8350000BFCC
:10128000002084F8340000BFE06B10B12046E16B11
:101290008847606D38B3606D00F00100F0B1052043
:1012A00084F835002068006820F00100216808609B
:1012B00000BF0098401C0090B84200D905E02068AB
:1012C000006800F001000028F3D100BF012084F87D
:1012D000350000BF002084F8340000BFE06C10B17E
:1012E0002046E16C884700BFA4E7000040020020D0
:1012F0002DE9F0410446002500F0C8F9074614B96D
:101300000120BDE8F081606A00B100BF022084F8CE
:10131000350000BF002084F8340000BF206800685A
:1013200020F00100216808600AE000F0AFF9C01B5E
:10133000052805D920206065032084F83500E0E702
:101340002068006800F001000028EED120680568E0
:1013500021480540D4E901010843E16808432169B7
:10136000084361690843A1690843E1690843216AA8
:1013700008430543606A042803D1D4E90B010843FC
:101380000543206805602068456925F00705606A07
:101390000543606A04280DD1A06A0543E06A48B19C
:1013A000204602F017F928B140206065012084F83A
:1013B0003500A6E720684561204602F061F906463F
:1013C00094F85C103F208840B060002060650120E8
:1013D00084F83500002094E73F8010F02DE9F047B5
:1013E00004460D4616461F464FF00008D4F85890A4
:1013F00000BF94F83400012802D10220BDE8F08734
:10140000012084F8340000BF94F83500012825D16C
:10141000022084F83500002060653B4632462946AC
:10142000204602F0C1F894F85C103F208840C9F8CB
:1014300008002068006840F0160021680860206CF1
:1014400028B12068006840F0080021680860206822
:10145000006840F001002168086006E000BF00203D
:1014600084F8340000BF4FF002084046C6E7000091
:1014700070B5044600F00AF906462546681C10B10E
:1014800004480078054400BF00F000F9801BA84222
:10149000FAD370BD3C020020F8B502460B46002589
:1014A000002400200021D6E0012606FA01F51E687E
:1014B00006EA0504AC4274D11E7906F00306012E3B
:1014C00004D01E7906F00306022E13D190684F0057
:1014D0000326BE40B0434F00DE68BE4030439060FC
:1014E000506801268E40B0431E79C6F300168E4028
:1014F000304350601E7906F00306032E09D0D068F1
:101500004F000326BE40B0434F009E68BE403043AC
:10151000D0601E7906F00306022E13D1CF0802F127
:10152000200656F827004E07F70E0F26BE40B043A0
:101530004F07FF0E1E69BE403043CF0802F1200660
:1015400046F8270010684F000326BE40B0431E79BE
:1015500006F003064F00BE40304310605E6806F49C
:101560004036002E76D000BF002600963C4E3668EE
:1015700046F480463A4F3E603E46366806F4804662
:10158000009600BF00BF374E8F0856F827008E0721
:10159000370F0F26BE40B043334EB24202D1002671
:1015A00024E057E0314EB24201D101261EE0304E18
:1015B000B24201D1022619E02E4EB24201D10326D9
:1015C00014E02D4EB24201D104260FE02B4EB24260
:1015D00001D105260AE02A4EB24201D1062605E0D5
:1015E000284EB24201D1072600E008268F073F0FA0
:1015F000BE4030431B4E8F0846F82700224E30680D
:10160000A0435E6806F4801606B120431E4E30608B
:10161000361D3068A0435E6806F4001606B120430C
:10162000194E361D3060184E361F3068A0435E6874
:1016300006F4003606B12043134E361F3060361FC5
:101640003068A0435E6806F4803606B120430E4E33
:10165000083E3060491C1029FFF426AFF8BD000099
:1016600044380240083801400000024000040240B3
:1016700000080240000C024000100240001402402A
:1016800000180240001C0240083C0140014800686C
:1016900070470000340200200348006803490978BD
:1016A0000844014908607047340200203C020020D1
:1016B00010B50D48006840F400700B4908600846FA
:1016C000006840F4806008600846006840F480705C
:1016D0000860032000F0A6F80F2000F007F800F0E3
:1016E0002BF8002010BD0000003C024070B50446FD
:1016F0000E4800784FF47A71B1FBF0F00C4909689C
:10170000B1FBF0F5284600F02FFC08B1012070BDB8
:10171000102C07D200222146501E00F045F8054843
:10172000046001E00120F2E70020F0E73C02002025
:10173000400200203802002008B500BF00200090C1
:101740000E48006840F480400C4908600846006874
:1017500000F48040009000BF00BF00BF0020009058
:10176000081F006840F08050091F086008460068A4
:1017700000F08050009000BF00BF08BD4438024018
:101780000146084600280DDB00BF00BF00F01F0324
:1017900001229A4043099B0003F1E023C3F8002192
:1017A00000BF00BF00BF70472DE9F05F80460D46C7
:1017B0001646002702F080FA074639462A46334685
:1017C00001F00700C0F1070ABAF1040F02D94FF087
:1017D000040A01E0C0F1070AD14600F1040ABAF197
:1017E000070F02D24FF0000A01E0A0F1030AD4462D
:1017F0004FF0010A0AFA09FAAAF1010A0AEA020AF2
:101800000AFA0CFA4FF0010B0BFA0CFBABF1010BCF
:101810000BEA030B4AEA0B042146404602F038FA71
:10182000BDE8F09F00BF00F00702064B19684FF6B5
:10183000FF031940044B0B4343EA0221014B19609B
:1018400000BF70470CED00E00000FA0570B50446DB
:101850000D460CB9012070BD5848006800F0070023
:10186000A84209D255490D700846006800F00700EB
:10187000A84201D00120EEE7207800F00200022803
:101880001DD1207800F00400042805D14C480068E0
:1018900040F4E0504A490860207800F00800082829
:1018A00005D14748006840F4604045490860444815
:1018B000006820F0F000A1680843414908602078E2
:1018C00000F00100A8B36068012807D13C4808383F
:1018D0000068C0F34040B8B90120BCE76068022846
:1018E00002D06068032807D1354808380068C0F383
:1018F000406048B90120AEE7314808380068C0F3BD
:10190000400008B90120A6E72D48006820F0030038
:10191000616808432A490860FFF7B8FE064609E0F7
:10192000FFF7B4FE801B41F28831884202D90320C0
:1019300091E707E02248006800F00C006168B0EB16
:10194000810FEDD11D48006800F00700A84209D9B9
:101950001A490D700846006800F00700A84201D03F
:10196000012078E7207800F00400042807D114480B
:10197000006820F4E050E1680843114908602078CD
:1019800000F00800082808D10D48006820F46040E5
:10199000216940EAC1000A49086000F03FF808499F
:1019A0000968C1F30311074A515CC8400649086041
:1019B00006480068FFF79AFE00204CE7003C024012
:1019C00008380240464F000840020020380200203C
:1019D00001480068704700004002002000B5FFF792
:1019E000F7FF04490968C1F38221034A515CC840EA
:1019F00000BD000008380240564F000800B5FFF750
:101A0000E7FF04490968C1F34231034A515CC84009
:101A100000BD000008380240564F00082DE9F0478D
:101A2000002400250026A1462548006800F00C008F
:101A300020B1042805D008283AD105E0DFF88490C9
:101A400039E0DFF8849036E01D48001F006800F0A0
:101A50003F041B48001F006800F4800078B11A485A
:101A60001749091F0968C1F38811A0FB01700146DD
:101A7000224600233846FEF709FC05460EE01148D1
:101A80000F49091F0968C1F38811A0FB01700146C5
:101A9000224600233846FEF7F9FB05460848001F9A
:101AA0000068C0F30140401C4600B5FBF6F902E0B7
:101AB000DFF8109000BF00BF4846BDE8F087000087
:101AC000083802400024F400001BB700F8B50446B3
:101AD0000CB90120F8BD207800F00100002874D076
:101AE000F948006800F00C0004280DD0F6480068A2
:101AF00000F00C00082813D1F348001F006800F420
:101B00008000B0F5800F0BD1EF4808380068C0F3B3
:101B10004040002859D06068002856D10120D9E7FC
:101B200000BF6068B0F5803F08D1E748083800681A
:101B300040F48030E449083908601EE06068B0F580
:101B4000A02F0DD1E0480838006840F48020DE491D
:101B5000083908600846006840F4803008600CE0EE
:101B6000D9480838006820F48030D749083908601F
:101B70000846006820F48020086000BF606890B1CB
:101B8000FFF784FD054606E0FFF780FD401B642853
:101B900001D903209EE7CC4808380068C0F34040D4
:101BA0000028F1D011E0FFF771FD054606E0FFF7D0
:101BB0006DFD401B642801D903208BE7C24808381B
:101BC0000068C0F340400028F1D1207800F0020006
:101BD00002285FD1BC48006800F00C0058B1BA4838
:101BE000006800F00C0008281CD1B748001F0068EE
:101BF00000F48000B0B9B44808380068C0F3400071
:101C000020B1E068012801D0012063E7AE48083820
:101C1000006820F0F800216940EAC100AA490839AB
:101C2000086037E0E06800B30120A8490860FFF7CA
:101C30002DFD054606E0FFF729FD401B022801D9CE
:101C4000032047E7A04808380068C0F34000002898
:101C5000F1D09D480838006820F0F800216940EA7A
:101C6000C10099490839086014E0002097490860CC
:101C7000FFF70CFD054606E0FFF708FD401B0228B4
:101C800001D9032026E7904808380068C0F34000D7
:101C90000028F1D1207800F0080008282CD16069D4
:101CA000A8B101208A490860FFF7F0FC054606E06C
:101CB000FFF7ECFC401B022801D903200AE7824809
:101CC0006C300068C0F340000028F1D014E0002020
:101CD0007F490860FFF7DAFC054606E0FFF7D6FC0F
:101CE000401B022801D90320F4E677486C300068D5
:101CF000C0F340000028F1D1207800F0040004284F
:101D000070D1002770483830006800F0805090B9DA
:101D100000BF002000906C483830006840F08050D0
:101D20006949383108600846006800F0805000902A
:101D300000BF00BF01276748006800F48070B0B999
:101D40006448006840F4807062490860FFF79EFCB8
:101D5000054606E0FFF79AFC401B022801D9032044
:101D6000B8E65C48006800F480700028F2D000BF3C
:101D7000A068012808D154486830006840F001008C
:101D80005149683108601DE0A06805280DD14E4812
:101D90006830006840F004004B496831086008462C
:101DA000006840F0010008600CE0474868300068B7
:101DB00020F001004449683108600846006820F0BE
:101DC0000400086000BFA068A8B1FFF75FFC0546EB
:101DD00009E0FFF75BFC401B41F28831884202D9E1
:101DE000032077E626E0384868300068C0F34000FA
:101DF0000028EED013E0FFF749FC054608E0FFF7A6
:101E000045FC401B41F28831884201D9032061E63C
:101E10002D4868300068C0F340000028EFD1012F42
:101E200007D129483830006820F0805026493831E1
:101E3000086000BFA069002845D02348006800F072
:101E40000C0008285DD0A069022845D100201F4958
:101E50000866FFF71BFC054606E0FFF717FC401B72
:101E6000022801D9032035E6174808380068C0F376
:101E700040600028F1D1D4E907010843616A40EAD3
:101E800081110122A06AC2EB500041EA00412C20DE
:101E9000005D41EA00600C49091F086001200B4900
:101EA0000866FFF7F3FB054606E0FFF7EFFB401B74
:101EB000022801D903200DE6034808380068C0F362
:101EC00040600028F1D049E0083802400000474255
:101ED000800E474200700040002021490866FFF74D
:101EE000D5FB054606E0FFF7D1FB401B022801D9D0
:101EF0000320EFE51B480068C0F340600028F2D1E2
:101F00002CE0A069012800D1E4E51648001D066810
:101F1000A069012820D006F48001E06981421BD12C
:101F200006F03F01206A814216D147F6C07030406A
:101F3000616AB0EB811F0FD106F440310122A06A23
:101F4000C2EB5000B1EB004F06D106F070612C20BF
:101F5000005DB1EB006F01D00120BBE50020B9E5C9
:101F6000000047420038024070B504462546681E0E
:101F7000B0F1807F01D301200FE0681E4FF0E02117
:101F800048610F214FF0FF3001F082FE00204FF03A
:101F9000E021886107200861002070BDF8B5044683
:101FA0000E46174694F8420020282ED106B10FB9EC
:101FB0000120F8BD01202063002060633A463146CD
:101FC000204600F0F1FC0546EDB9206B012819D13F
:101FD00000BF0020009020680068009020684068E2
:101FE000009000BF00BF00BF00BF21680C3151E866
:101FF000001F41F0100021680C3141E80002002A66
:10200000F3D100E001252846D3E70220D1E7000004
:1020100070B504460D463C49206888420FD13B48C4
:102020002946D0F8082200F5827090473748B0F86A
:10203000042200F582712046FFF7B0FF62E03449C8
:10204000206888420FD133482946D0F8082200F58D
:10205000827090472F48B0F8042200F58271204624
:10206000FFF79CFF4EE02C49206888420FD12B4897
:102070002946D0F8082200F5827090472748B0F82A
:10208000042200F582712046FFF788FF3AE02449D8
:10209000206888420FD123482946D0F8082200F54D
:1020A000827090471F48B0F8042200F582712046E4
:1020B000FFF774FF26E01C49206888420FD11B48B7
:1020C0002946D0F8082200F5827090471748B0F8EA
:1020D000042200F582712046FFF760FF12E01449E8
:1020E000206888420ED113482946D0F8082200F50E
:1020F000827090470F48B0F8042200F582712046A4
:10210000FFF74CFF70BD0000001001408409002063
:1021100000440040900B0020004800409C0D00202F
:10212000004C0040A80F002000500040B4110020D7
:1021300000140140C0130020704700002DE9F84F43
:102140000446206805682068C668206847694FF023
:102150000009CA4605F00F09B9F1000F0AD105F0D0
:10216000200038B106F0200020B1204601F0E0FB4D
:10217000BDE8F88FB9F1000F7CD007F0010018B965
:1021800006F49070002875D005F0010030B106F417
:10219000807018B1606C40F00100606405F00400CC
:1021A00030B107F0010018B1606C40F002006064CB
:1021B00005F0020030B107F0010018B1606C40F08A
:1021C0000400606405F0080048B106F0200010B972
:1021D00007F0010018B1606C40F008006064606CAA
:1021E000002846D005F0200028B106F0200010B1EC
:1021F000204601F09DFB20684069C0F3801A606CA6
:1022000000F0080010B9BAF1000F2DD0204601F0FF
:1022100056FC2068406900F04000402820D100BFF3
:1022200000BF2168143151E8001F21F040002168EF
:10223000143141E80002002AF3D100BFE06B50B135
:102240007748E16B0865E06BFEF71DFF88B1E06B36
:10225000016D88470DE02046FFF76EFF09E009E0B9
:102260002046FFF769FF04E02046FFF765FF0020E6
:1022700060647DE7206B012878D105F0100000280C
:1022800074D006F010000028FAD000BF00200090A3
:1022900020680068009020684068009000BF00BF80
:1022A0002068406900F04000402860D1E06B006881
:1022B00040681FFA80F8B8F1000F56D0A08D404555
:1022C00053DDA4F82E80E06BC069B0F5807F43D069
:1022D00000BF00BF21680C3151E8001F21F480705D
:1022E00021680C3141E80002002AF3D100BF00BF91
:1022F00000BF2168143151E8001F21F0010021685E
:10230000143141E80002002AF3D100BF00BF00BF32
:102310002168143151E8001F21F040002168143178
:1023200041E80002002AF3D100BF202084F84200D7
:102330000020206300BF00BF21680C3151E8001F5E
:1023400021F0100021680C3141E80002002AF3D18D
:1023500000BFE06BFEF741FE02206063A08DE28DBE
:10236000801A81B22046FFF753FE01E742E0A08DBC
:10237000E18D401A1FFA80F8E08DD0B3B8F1000F5C
:1023800037D000BF00BF21680C3151E8001F21F495
:10239000907021680C3141E80002002AF3D100BF9F
:1023A00000BF00BF2168143151E8001F21F0010077
:1023B0002168143141E80002002AF3D100BF202037
:1023C00084F842000020206300BF00BF21680C3168
:1023D00051E8001F21F0100021680C3141E8000293
:1023E000002AF3D100BF0220606341462046FFF778
:1023F0000FFEBDE605F0800030B106F0800018B198
:10240000204601F013FBB3E605F0400030B106F0C2
:10241000400018B1204601F0F5FBA9E600BFA7E691
:10242000253C000810B504460CB9012010BDA06978
:1024300000B100E000BF94F8410028B9002084F802
:102440004000204600F02AF8242084F8410020684B
:10245000C06820F400502168C860204601F052F99D
:102460002068006920F49040216808612068406974
:1024700020F02A00216848612068C06840F40050BC
:102480002168C86000206064202084F8410084F83E
:1024900042000020606300BFC8E7000010B586B0AE
:1024A0000446142101A8FDF768FF7D492068884291
:1024B0007ED100BF002000907A48006840F01000F4
:1024C000784908600846006800F01000009000BFDE
:1024D00000BF00BF0020009072481438006840F030
:1024E00002007049143908600846006800F00200D4
:1024F000009000BF00BF00BF0020009008460068A9
:1025000040F0010008600846006800F001000090FB
:1025100000BF00BF802001900220029000200390A5
:10252000032004900720059001A95F48FEF7B4FF3F
:102530004FF40070019002200290002003900320CD
:1025400004900720059001A95848FEF7A5FF5848B8
:10255000584908604FF0006048604021554881604C
:102560000021C1604FF480610161002141618161FE
:10257000C16101624162FEF7BBFE08B1FDF7E7FFF2
:1025800000BF4C48A063846300BF494878384A497B
:1025900008604FF000604860002147488160C160DA
:1025A0004FF480610161002141618161C16100E0FE
:1025B00014E001624162FEF79BFE08B1FDF7C7FF20
:1025C00000BF3D48E063846300BF00221146252020
:1025D000FFF7EAF82520FFF7D3F85EE037492068D7
:1025E00088425AD100BF002000902E48001F00688A
:1025F00040F480202B49091F08600846006800F459
:102600008020009000BF00BF00BF00200090254840
:102610001438006840F00400224914390860084664
:10262000006800F00400009000BF00BF4FF440605D
:1026300001900220029000200390032004900720C4
:10264000059001A91E48FEF727FF1E481E49086095
:102650004FF00060486000211B488160C1604FF46A
:1026600080610161002141618161C1614FF40031EC
:10267000016200214162FEF73BFE08B1FDF767FFF2
:1026800000BF1148E063846300BF00221146272089
:10269000FFF78AF82720FFF773F806B010BD000097
:1026A0000010014044380240000402400000024093
:1026B000B864024064080020C408002000480040BC
:1026C000000802402860024024090020704770473B
:1026D000F7B50446154694F84100202836D10198F4
:1026E00000B10DB90120FEBD01982062A584E584EA
:1026F00000206064212084F841001548A16BC86364
:102700001448A16B08641448A16BC8640020A16B35
:10271000086501AE23681A1D31682B46A06BFEF7D1
:102720005DFE6FF040002168086000BF00BF2168B7
:10273000143151E8001F41F080002168143141E854
:102740000002002AF3D100BF0020CCE70220CAE734
:10275000393C0008B13A0008B536000870477047A8
:1027600000BFFEE710B50F480F490860032048601E
:1027700000210D488160C1604FF4102101614FF4C8
:10278000001141610021017601214176002181760D
:10279000C17601774177FEF71BFA08B1FDF7D7FE46
:1027A00010BD0000006400408407002010B50E48F2
:1027B0000E4908600320486000210C488160C16018
:1027C0004FF4102101614FF40011416100210176A5
:1027D00041768176C17601774177FEF7F9F908B144
:1027E000FDF7B5FE10BD000000680040AC070020FA
:1027F00008B500BF002000901A48006840F400109F
:10280000184908600846006800F40010009000BFF6
:1028100000BF00BF002000900846006840F4800020
:1028200008600846006800F48000009000BF00BF08
:10283000002211460C20FEF7B7FF0C20FEF7A0FF88
:10284000002211463A20FEF7AFFF3A20FEF798FF2C
:10285000002211464620FEF7A7FF4620FEF790FF14
:1028600008BD00003038024008B500BF00200090CD
:102870002448006840F002002249086008460068C9
:1028800000F00200009000BF00BF00BF00200090D9
:102890000846006840F0010008600846006800F043
:1028A0000100009000BF00BF00BF0020009008465C
:1028B000006840F0080008600846006800F0080062
:1028C000009000BF00BF00BF0020009008460068D5
:1028D00040F0040008600846006800F00400009022
:1028E00000BF00BF00BF002000900846006840F015
:1028F000800008600846006800F08000009000BF7B
:1029000000BF08BD3038024010B50B480B490860C5
:102910004FF4E1304860002108488160C1600161E6
:102920000C21416100218161C161FFF77BFD08B18C
:10293000FDF70DFE10BD000000100140D40700207F
:1029400010B50C480C4908600C4848604FF48051A1
:10295000094881604900C160C91001610C214161D1
:1029600000218161C161FFF75DFD08B1FDF7EFFD59
:1029700010BD0000004800401C080020A086010097
:1029800000BFFEE700BFFEE77047704710B5FEF7D7
:1029900083FE10BD0348006840F4700001490860E0
:1029A0007047000088ED00E077B581B00446154619
:1029B0000298A062A58500206064222084F842006D
:1029C0002848E16BC8632848E16B08642748E16B3D
:1029D000C8640020E16B086502AE32682368191DE7
:1029E0002B46E06BFEF7FAFC00BF00200090206849
:1029F0000068009020684068009000BF00BF206918
:102A000070B100BF00BF21680C3151E8001F41F4D4
:102A1000807021680C3141E80002002AF3D100BF28
:102A200000BF00BF2168143151E8001F41F00100D0
:102A30002168143141E80002002AF3D100BF00BF31
:102A400000BF2168143151E8001F41F040002168A7
:102A5000143141E80002002AF3D100BF002004B085
:102A600070BD0000513B00088D3A0008B5360008E3
:102A700010B50248FFF762FB10BD0000D40700202C
:102A800008B543480068006800F0200060B100BF4E
:102A9000002000903E480068006800903C480068B4
:102AA0004068009000BF6EE03A48006800F01000F7
:102AB000002868D000BF00200090354800680068FA
:102AC0000090334800684068009000BF00BF324863
:102AD0000068006800F4002058BB2F4800680068B8
:102AE00020F001002C49096808602B480068406804
:102AF000C0F132002949088032202749096848601E
:102B000025480068006840F40020234909680860EF
:102B100021480068006840F001001F49096808600A
:102B20001E48008819282ED11D491E4800F040F883
:102B300029E019480068006820F00100164909687A
:102B40000860154800684068C0F1320013490880E9
:102B500032201149096848601348806A20F4002037
:102B6000114988620C480068006840F001000A4979
:102B70000968086009480088192804D108490948EB
:102B8000323000F015F80248FFF7D8FA08BD00000F
:102B90001C080020004800402409002030020020CA
:102BA000E4190020F21900200060024000BFFEE797
:102BB00000B101B970474278837842EA0322C2F338
:102BC0000A020A808278D210C37842EA4312C2F322
:102BD0000A024A80C2789211037942EA8302437959
:102BE00042EA8322C2F30A028A8042795210837930
:102BF00042EAC312C2F30A02CA8082791211C3796F
:102C000042EA0312C2F30A020A81C279D211037A9C
:102C100042EA4302437A42EA43228A72427A92109B
:102C2000837A42EA8312CA7200BFC3E7F8B5074647
:102C30000C4615461E4640F2FF100D490860002064
:102C40008860C86008200861380A0A4908704F7017
:102C5000200A8870CC70280A08714D71300A88717A
:102C6000CE716B460A4602490348FDF788FCF8BD61
:102C7000A01A0020440200208407002070B50446FA
:102C80000D461646324629462046FFF721FD70BD07
:102C900000B58BB00120099000200790012008901A
:102CA000002001900290039004900690059001A9E5
:102CB0000C48FDF709FD0B48FEF759F902210948B8
:102CC000FDF748FC0E200A90069001A90648FDF782
:102CD000FBFC0548FEF74BF902210348FDF73AFCDF
:102CE0000BB000BD84070020AC07002000B593B0F6
:102CF000302107A8FDF741FB142102A8FDF73DFB99
:102D000000BF002001902448006840F08050224914
:102D100008600846006800F08050019000BF00BFC6
:102D200000BF002001901D48006840F480401B490E
:102D300008600846006800F48040019000BF00BFB2
:102D4000012007900004089002200D9041050E918B
:102D500006210F91A82110910221119104211291B5
:102D600007A8FEF7B3FE08B1FDF7F1FB0F200290B4
:102D700002200390002004904FF4A05005904FF4DF
:102D800080500690052102A8FEF760FD08B1FDF70E
:102D9000DEFB13B000BD0000403802400070004070
:102DA00004480068406940F08000024909684861B1
:102DB00070470000D407002010B532220249A1F16B
:102DC000320000F085F810BD241A0020004870473A
:102DD000E419002070B52DED048B04460D46214604
:102DE0002E4800F08BF92D4800F048F930B1012849
:102DF00017D0022828D003284CD138E0274800F00B
:102E000041F9B0EE409AF0EE609A51EC190B01F0E6
:102E100095FF08EE100AB0EE480A214801F0ADF81F
:102E200038E01E4800F02EF9B0EE409AF0EE609ABD
:102E300051EC190B01F082FF08EE100AB0EE480ABF
:102E4000184801F09AF825E0144800F01BF9B0EE9C
:102E5000409AF0EE609A51EC190B01F06FFF08EE0A
:102E6000100AB0EE480A104801F087F812E00B484B
:102E700000F008F9B0EE409AF0EE609A51EC190BB0
:102E800001F05CFF08EE100AB0EE480A074801F0B6
:102E900074F800BF00BFBDEC048B70BD5802002069
:102EA00030040020F00200204003002090030020A6
:102EB00010B5312202490348FFF7E0FE10BD0000C3
:102EC00088090020D407002000487047801A00209D
:102ED00010B5234B1B685B6943F04003204C24680A
:102EE00063611F4B1B68DB6843F010031C4C2468B4
:102EF000E3601C4B1B681B6823F00103194C24681A
:102F0000236007E0174B1B681B6823F00103154C77
:102F100024682360134B1B681B6803F00103002B1C
:102F2000F0D1114B0F4C2468A3600E4B1B68D86086
:102F30000C4B1B6819610B4B1B685A60094B1B68D3
:102F40001B6843F48023074C24682360054B1B68EF
:102F50001B6843F00103034C2468236010BD00008C
:102F60001C080020240900200448004070B50446D5
:102F70000D4616463549206888420DD13448046014
:102F8000C0F80852A0F80462B0F8042200F582717B
:102F90002046FFF703F858E02E49206888420DD1FB
:102FA0002D480460C0F80852A0F80462B0F804226A
:102FB00000F582712046FEF7F1FF46E027492068C0
:102FC00088420DD126480460C0F80852A0F8046277
:102FD000B0F8042200F582712046FEF7DFFF34E0EE
:102FE0002049206888420DD11F480460C0F808526B
:102FF000A0F80462B0F8042200F582712046FEF7C2
:10300000CDFF22E01949206888420DD1184804609C
:10301000C0F80852A0F80462B0F8042200F58271EA
:103020002046FEF7BBFF10E01249206888420CD111
:1030300011480460C0F80852A0F80462B0F80422F5
:1030400000F582712046FEF7A9FF70BD0010014017
:103050008409002000440040900B002000480040FC
:103060009C0D0020004C0040A80F002000500040A4
:10307000B411002000140140C0130020014691F952
:103080004100704710B5044694ED110A10EE101A75
:10309000084601F0D9FE41EC100B10BD70B59AB096
:1030A0000446002506E0206800F58270405D01A915
:1030B00048556D1C206800F58270405D3D28F2D1B6
:1030C000002001A9485500260FE06422A06802FBF9
:1030D000060101A8FDF778F930B970B284F8410013
:1030E000681CC0B21AB070BD761C2079B042ECDC0E
:1030F000FF2084F84100681CC0B2F3E770B50446B5
:103100000E462046FFF7CAFF05462946204600F036
:1031100001F870BD2DE9F0412DED048B04460E46FB
:103120000027012008EE100A9FED300A84ED110AF5
:1031300094F94100401C18B9BDEC048BBDE8F08146
:10314000206800F58270805D2D2804D14FF0FF309B
:1031500008EE100A761C354619E0206800F58270EA
:10316000405D2E2801D12F4610E0206800F58270C6
:10317000405D303800EE100AB8EEC00AD4ED110AF6
:10318000B2EE041A00EE810A84ED110A6D1C20686B
:1031900000F58270405D232805D0206800F582701C
:1031A000405D0028D9D1B7B1F2EE048AE81B00EEE9
:1031B000100AB8EEC00AF7EE000A30EE609AF0EEA0
:1031C000490AB0EE680A00F03BFFD4ED110A80EE28
:1031D000801A84ED111A94ED110AF8EEC80A20EE57
:1031E000200A84ED110A00BFA6E7000000000000DD
:1031F00010B50446204600F04DF810BDF0B5DDE9ED
:103200000554184F0E68BE4202D1174E066021E0E9
:10321000164F0E68BE4202D1154E06601AE0154FD9
:103220000E68BE4202D1144E066013E0134F0E68C2
:10323000BE4202D1124E06600CE0124F0E68BE4232
:1032400002D1114E066005E0104F0E68BE4201D15A
:103250000F4E066002718360057344730668347113
:10326000F0BD00000010014084090020004400402F
:10327000900B0020004800409C0D0020004C0040B6
:10328000A80F002000500040B4110020001401409D
:10329000C013002010B5002104E000230268121DB5
:1032A0005354491CFF29F8DD417B02681171017BF1
:1032B00011B1017B032910D1002109E00268121D20
:1032C000531800F1100252F8212012785A70491C4C
:1032D00090F840208A42F1DC4BE0017B012902D0CA
:1032E000017B042912D100210BE00268121D02EBC0
:1032F000410300F1100252F821201288A3F80120A6
:10330000491C90F840208A42EFDC32E0017B022920
:1033100005D0017B052902D0017B062912D10021AD
:103320000BE00268121D02EB810300F1100252F85B
:1033300021201268C3F80120491C90F840208A42DD
:10334000EFDC16E0017B072913D100210DE00268B4
:10335000121D02EBC10300F1100252F82120146883
:1033600043F8014F52685A60491C90F840208A4245
:10337000EDDC10BD0FB408B504A90091002109E0EF
:10338000009A136800F1100242F82130009A121DD1
:103390000092491C9DF80C209142F1DB0021009124
:1033A0009DF80C1080F8401001B05DF814FB38B5A2
:1033B000044694F85401032802D004287ED133E057
:1033C000D4ED570AB0EE600A04F1500000F07CFC26
:1033D000D4ED4D0AB0EE600A04F1500000F0D0FDCB
:1033E00004F1500000F074FC04F1500000F0C2FD44
:1033F00084ED580A94ED580A8DED000A94ED3F1AB9
:10340000F0EE410A94ED3F1AB1EE411AB0EE410AD6
:10341000684601F071FC94ED460ADDED000A20EEED
:10342000200A84ED4B0A49E0D4ED560AB0EE600A5A
:10343000204600F049FCD4ED4C0AB0EE600A20466C
:1034400000F09EFD204600F043FC204600F092FD77
:1034500084ED570AD4ED570AB0EE600A04F150002B
:1034600000F032FCD4ED4D0AB0EE600A04F15000D9
:1034700000F086FD04F1500000F02AFC04F1500039
:1034800000F078FD84ED580A94ED580A8DED000A9D
:1034900094ED3F1AF0EE410A94ED3F1AB1EE411A55
:1034A000B0EE410A684601F027FC94ED460ADDEDD6
:1034B000000A20EE200A84ED4B0A00BF00BF38BD91
:1034C00080F8542180ED3E0AC0ED3F0A70470000AD
:1034D00010B50446204600F057FD0446503000F079
:1034E00053FDA0F15004503000F04EFDA0F1A004B7
:1034F0009FED260A80ED180A9FED250A80ED190A36
:103500009FED240A80ED1A0A9FED230A80ED1B0A25
:103510004FF40050A4F810019FED200A84ED450AF5
:103520009FED1F0A84ED460AB3EE080A84ED470AB0
:10353000B0EE080A84ED480A0020C4F824019FED8B
:10354000190AC4F8280184ED4B0A042084F85401B8
:103550009FED140A84ED560A9FED120A84ED570A76
:103560009FED100A84ED580A9FED0E0A84ED590A6A
:103570009FED0C0A84ED5A0A9FED0A0A84ED5B0A5E
:103580009FED080A84ED5C0A204610BDC520503F1F
:103590006F1203BA3411C040508DAF3F553582448D
:1035A000ABAAAA450000000030B50468246824F4E2
:1035B000802405682C60046863608468402C04D112
:1035C0000468A2600468E16003E00468A160046824
:1035D000E26030BD014600208A6A8B69CBB932B106
:1035E000012A0DD0022A03D0032A10D10EE000BF19
:1035F000CB6A03F08073B3F1807F00D1012007E034
:10360000CB6AB3F1C07F00D1012001E000E000BF30
:1036100034E08B69B3F5005F1AD132B1012A07D0CB
:10362000022A03D0032A11D10AE000BF01200EE0D4
:10363000CB6A03F08073B3F1807F00D1012006E0F4
:10364000CB6AB3F1C07F00D1012000E000BF15E0DC
:1036500032B1012A05D0022A04D0032A0CD103E09A
:1036600000BF00BF012008E0CB6A03F08073B3F114
:10367000807F00D1012000E000BF00BF7047000044
:103680000146087810381823B0FBF3F20848805C34
:10369000C865032A05D908686FF30900001D88650D
:1036A00003E008686FF309008865886D70470000C3
:1036B0003E4F000870B506460025B46B206840698F
:1036C000C0F3C01594F84100212805D125B1002090
:1036D000E084204600F029FA20684069C0F3801594
:1036E00094F84200222805D125B10020E08520462B
:1036F00000F0E5F9606C40F0100060642046FEF7D1
:103700001BFD70BD2DE9F84F04462068006920F4C8
:103710004050E1680843216808612169A0680843B6
:1037200061690843E169084300902068C06849F274
:103730000C618843009908432168C860206840698B
:1037400020F44070A16908432168486176492068E7
:10375000884203D075492068884203D1FEF74EF9AC
:10376000814602E0FEF73AF98146E069B0F5004F84
:103770006CD102206168A0FB015003461920A9FB0F
:10378000007001462A463846FCF780FD6421B0FBF4
:10379000F1F04FEA001A02206168A0FB01510B46CC
:1037A0001920A9FB00712A463846FCF76FFD8346B5
:1037B00002206168A0FB015003461920A9FB00719B
:1037C0002A463846FCF762FD6421B0FBF1F000EBBD
:1037D000C00101EB0010ABEB8000322101EBC00017
:1037E0006421B0FBF1F000F0F8000AEB400A02207F
:1037F0006168A0FB015003461920A9FB0070014637
:103800002A463846FCF742FD834602206168A0FB49
:10381000015003461920A9FB00712A463846FCF7DF
:1038200035FD6421B0FBF1F000EBC00101EB0010AD
:10383000ABEB8000322101EBC0006421B0FBF1F062
:1038400000F007005044216888606AE00420616845
:10385000A0FB015003461920A9FB007001462A462F
:103860003846FCF713FD824604206168A0FB015036
:1038700003461920A9FB007001462A463846FCF78A
:1038800005FD6421B0FBF1F000EBC00101EB00107D
:10389000AAEB8000322101EB00106421B0FBF1F0B3
:1038A00000F0F00A04206168A0FB017003461920B3
:1038B000A9FB00513A462846FCF7E8FC6421B0FB1E
:1038C000F1F00AEB001A04206168A0FB01510B46DD
:1038D0001920A9FB00712A463846FCF7D7FC83461D
:1038E00004206168A0FB015003461920A9FB007069
:1038F00001462A463846FCF7C9FC6421B0FBF1F0CA
:1039000000EBC00101EB0010ABEB8000322101EBBA
:1039100000106421B0FBF1F000F00F00504421686A
:103920008860BDE8F88F00000010014000140140DD
:10393000F8B5044694F84200222875D1A068B0F585
:10394000805F0CD1206950B90025A66A20684068C4
:10395000C0F308003080A06A801CA06215E0A56A50
:103960000026A068B0F5805F03D0A06828B9206960
:1039700018B920684068287004E02068406800F0AA
:103980007F002870A06A401CA062E08D401E80B2BB
:10399000E085002846D12068C06820F0200021681A
:1039A000C8602068C06820F480702168C860206802
:1039B000406920F0010021684861202084F842001D
:1039C00000206063206B012826D10020206300BF07
:1039D00000BF21680C3151E8001F21F01000216860
:1039E0000C3141E80002002AF3D100BF20680068D2
:1039F00000F0100010280AD100BF002000902068BD
:103A00000068009020684068009000BF00BFA18D52
:103A10002046FEF7FDFA02E02046FEF757FE0020A2
:103A2000F8BD01E00020FBE70220F9E7014691F82C
:103A30004100212828D18868B0F5805F0BD1086942
:103A400048B90A6A1088C0F308000B685860086A11
:103A5000801C086205E00B6A581C086218780B6825
:103A60005860C88C401E80B2C88458B90868C068C5
:103A700020F080000B68D8600868C06840F0400003
:103A80000B68D860002070470220FCE770B505463F
:103A9000AC6B01206063206B012805D1A08D41082B
:103AA0002046FEF7B5FA02E02046FEF710FE70BD94
:103AB00070B50446A56B2846FEF751FE70BD00BFE9
:103AC00000BF02680C3252E8002F22F490710268A5
:103AD0000C3242E80013002BF3D100BF00BF00BF3F
:103AE0000268143252E8002F22F0010102681432F9
:103AF00042E80013002BF3D100BF016B01290ED166
:103B000000BF00BF02680C3252E8002F22F0100103
:103B100002680C3242E80013002BF3D100BF2021D1
:103B200080F8421000210163704700BF00BF0268A7
:103B30000C3252E8002F22F0C00102680C3242E839
:103B40000013002BF3D100BF202180F841107047F3
:103B500070B50546AC6B2868006800F480700028DA
:103B600042D1E08500BF00BF21680C3151E8001F41
:103B700021F4807021680C3141E80002002AF3D161
:103B800000BF00BF00BF2168143151E8001F21F0C1
:103B900001002168143141E80002002AF3D100BF7E
:103BA00000BF00BF2168143151E8001F21F0400020
:103BB0002168143141E80002002AF3D100BF20201F
:103BC00084F84200206B01280ED100BF00BF21689D
:103BD0000C3151E8001F21F0100021680C3141E840
:103BE0000002002AF3D100BF00206063206B01288F
:103BF00004D1A18D2046FEF70BFA02E02046FEF725
:103C000065FD70BD10B504462068C06820F0400016
:103C10002168C860202084F841002046FEF79EFD00
:103C2000002010BD70B50546AC6B0020E085E08437
:103C30002046FEF781FA70BD70B50546AC6B28686A
:103C4000006800F48070F8B90020E08400BF00BF75
:103C50002168143151E8001F21F0800021681431DF
:103C600041E80002002AF3D100BF00BF00BF216875
:103C70000C3151E8001F41F0400021680C3141E84F
:103C80000002002AF3D102E02046FEF767FD70BD76
:103C900010B5002804DB0A07130E054A135406E08A
:103CA0000A07140E034A00F00F031B1FD45410BD63
:103CB00000E400E018ED00E002480068C0F30220D4
:103CC000704700000CED00E080ED110A7047000025
:103CD00010B52DED0A8B04469FED990AF0EE409A3F
:103CE0009FED970AB0EE40AA9FED950AF0EE40AA2C
:103CF0009FED930AB0EE40BA94ED110AD4ED120A8A
:103D000030EE600AF0EE408AB0EE680A01F008F882
:103D1000B0EE408A94ED010AB4EEC80AF1EE10FA52
:103D20000BDD94ED120A84ED110A9FED850AF0EE89
:103D3000408A9FED830AB0EE408A94ED080A20EE97
:103D4000280AF0EE409A94ED0E0AB5EEC00AF1EEA4
:103D500010FA09D194ED0E0AB5EEC00AF1EE10FA90
:103D600002D1B7EE009A32E094ED0F0AB4EEC80A21
:103D7000F1EE10FA02DBB7EE009A1DE094ED0F0AA7
:103D8000B4EEC80AF1EE10FA16D294ED0E0AD4ED94
:103D90000F0A30EE200AB4EEC80AF1EE10FA0BDD7D
:103DA00094ED0E0AD4ED0F0A30EE200A30EE480AE8
:103DB000D4ED0E0A80EE209A94ED0F0AB4EEC80AF4
:103DC000F1EE10FA03D89FED5E0AB0EE409A94ED42
:103DD0000C0AB5EEC00AF1EE10FA19D094ED0C0AF7
:103DE000D4ED090A80EE201AF0EE41BA94ED0C0AE7
:103DF000B1EE400AD4ED090A80EE201AB0EE41CAB5
:103E0000F0EE6B0AB0EE4C0A04F14C0000F074FFC7
:103E100094ED100AB5EEC00AF1EE10FA12D194ED4D
:103E2000130AD4ED000A60EE890A00EEA80A84EDB8
:103E3000130A94ED090AD4ED130A20EE200AB0EE1D
:103E400040AA21E094ED100AB4EEC80AF1EE10FA8F
:103E500012DD94ED130AD4ED000A60EE890A00EE3B
:103E6000A80A84ED130A94ED090AD4ED130A20EE92
:103E7000200AB0EE40AA07E09FED310A84ED130A54
:103E80009FED2F0AB0EE40AA207A70B994ED0A0A8D
:103E9000D4ED060A78EEE00A20EE200AD4ED000AFE
:103EA00080EE201AF0EE41AA0FE094ED070AD4ED5F
:103EB000050A30EE600AD4ED0A0A20EE200AD4ED9D
:103EC000000A80EE201AF0EE41AA94ED110AD4ED1A
:103ED000040A30EE600AD4ED0B0A20EE200AB0EEA0
:103EE00040BA39EE8A0A30EE2A0A30EE0B0A84ED27
:103EF000070A94ED0D0AB5EEC00AF1EE10FA0DD0E6
:103F000094ED0D1AF0EE410A94ED0D1AB1EE411A3E
:103F1000B0EE410A04F11C0000F0EEFE94ED120A2E
:103F200084ED030A94ED110A84ED040A94ED070A66
:103F300084ED050AC4ED068ABDEC0A8B10BD0000B5
:103F40000000000080ED080AC0ED090A80ED0A1AA1
:103F5000C0ED0B1A80ED0C2AC0ED0D2A80ED003A61
:103F6000C0ED013A80ED0E4AC0ED0F4A80ED105AC7
:103F70000172704790ED070A704780ED080A70479C
:103F800080ED120A704700009FED220A80ED030ABF
:103F90009FED200A80ED040A9FED1E0A80ED050AC0
:103FA0009FED1C0A80ED060A9FED1A0A80ED070AB4
:103FB0009FED180A80ED080A9FED160A80ED090AA8
:103FC0009FED140A80ED0A0A9FED120A80ED0B0A9C
:103FD0009FED100A80ED0C0A9FED0E0A80ED0D0A90
:103FE0009FED0C0A80ED0E0A9FED0A0A80ED0F0A84
:103FF0009FED080A80ED100A9FED060A80ED110A78
:104000009FED040A80ED120A9FED020A80ED130A6B
:1040100070470000000000004100080218BF0420A3
:104020000A0E18BF40F001004FF07F4232EA010152
:1040300008BF40F00200012808BF052070470000BB
:1040400010B510EE100A2DED068BB7EE001A10EE2B
:10405000901AB0EE418A0022A0F5000CDFEDFE9A26
:104060004FF00073BCF1FE4F4FF07F4403EB410C67
:1040700080F0B481BCF1804FC0F02082F749014448
:104080009FEDF73AB1F5005F40F2D48200F5802150
:10409000CB0C03F00F0101EE901AC3F307137F3B23
:1040A000A0EBC350B8EEE12A00EE100A1A44DFED8F
:1040B000ED2AF0EE411A42EE221AF0EE613A70EE6D
:1040C000232A30EE632A12EE900A00F500606FF3A7
:1040D0000B0001EE900A73EEE13A33EE804AC1EE36
:1040E000223A22EE230A10EE100A00F500606FF368
:1040F0000B0000EE100A00EE612A00EE442A62EE88
:10410000232A70EE221A21EEA12ADFEDD73A02EE21
:10411000233A23EE023A20EE012A22EE811A03EE20
:10412000211A32EE010A10EE100A00F500606FF35A
:104130000B0000EE100A72EE401A31EE812A9FED5C
:10414000CB1A60EE011A9FEDCA1A20EE011A9FEDFC
:10415000C90A02EE001A31EE810A10EE100A00F5CB
:1041600000606FF30B0000EE100AC34871EEC01A36
:1041700031EE812A784400EBC10090ED003AD0ED99
:10418000011A100101EE100AF8EEC12A32EE211ACE
:1041900031EE001A31EE031A31EE221A11EE100A36
:1041A00000F500606FF30B0009EE100A39EE621A99
:1041B00031EE431A31EE400A30EE610A32EE40AA87
:1041C00010EE900A002100F500606FF30B0008EE7E
:1041D000900A084670EEE8AA4FF0000029EE280A7F
:1041E00000F00C01F0EEC00A10EE900AB0F18B4F17
:1041F0000DDD10EE900AB4EB400F08D310EE100A5C
:104200004FF08B4262F31E0008EE900A13E069EE55
:104210002A0A38EEAA1A4AEE010A30EE201A11EEE6
:10422000100A00F500606FF30B0008EE900A30EE04
:10423000680A70EE209A0C204FF0000038EEA90AB0
:10424000B5EEC00AF1EE10FA34BFFEEE000AF6EE4B
:10425000000A30EE800ABDEEC00A10EE100A01110D
:1042600000EE101AF8EEC00A00EE100AB8EEC00A0E
:1042700038EEC00A30EE290ADFED801A9FED801A71
:1042800000EE211ADFED7F1A7F4900F00F0040EEAB
:10429000011A21EE800A794401EB800191ED001AA8
:1042A0007A49794401EB8001D1ED001A784901EE99
:1042B000801A794401EB8000764990ED000A31EED6
:1042C000001AB0EEE00A10EE100A884215DA10EE7D
:1042D000100AB4EB400F10D39FED6F0A30EE800A46
:1042E000DFED6E0A20EE200A68EE010ABDEC068BB7
:1042F000BCEEC00A20EE200A10BD10EE100A68497C
:10430000884243DA10EE100AB4EB400F3ED3BDEE04
:10431000E00A68EE010A10EE100A00EBD0725110AC
:10432000C90501F17E5100EE101AA0EB6200C00534
:1043300060EE200A00F17E5000EE100A60EE808AE6
:1043400018EE900AB4EB400F0FD10220FCF797F85B
:1043500000F088FA10EE101A18EE100ABDEC068B69
:1043600061F31E0000EE100A10BD18EE900A400026
:1043700011D018EE900AFFF74FFE042808BF00F096
:1043800079FAB0EE680ABDEC068B10BDF5EEC00AF6
:10439000F1EE10FA0FD20220FCF771F800F06AFA81
:1043A00010EE101A18EE100ABDEC068B61F31E0019
:1043B00000EE100A10BD0220FCF761F800F052FA7E
:1043C00010EE101AB0EE480A10EE100ABDEC068B83
:1043D00061F31E0000EE100A10BD00BFBCF1804F5B
:1043E0006CD300BF00F1FF43B3F1FE4F24D200BFF6
:1043F000B0EEC00A10EE100AC1F3C7537F2B0DDBDD
:10440000972BBFF63BAEC3F196034FF0010C0CFAAD
:1044100003F3A3F1010C1CEA010F08D00120FCF703
:104420002EF8BDEC068BBDE8104000F013BA0B422D
:1044300018BFBFEE008A21E643001CBF4FF0807317
:10444000B3EB400F34D96FF01A02DFED161A20EEED
:10445000210A10EE100A27E000000000001080C0C2
:10446000ABAAAA3E0000803D7EE24C3E00B038423E
:10447000D49AB8BB3BAA3842E80D0000FC59633718
:10448000C9FF753A1872313D860D0000BA0D000063
:104490002A0D00000000FC420000FE420000004B1C
:1044A000000040430000004D10F0004FA0D1E5E5B2
:1044B000A0F50003B3F1FE4F21D2DFE503EB41038A
:1044C000B3F1007F11D3F5EEC00AF1EE10FA05D179
:1044D000430018BFB4EB400F76D883E701F00041EA
:1044E00041F0FC5100EE901A7CE7B3F1807F06D2D8
:1044F00010EE903AA3F5000300EE903A72E720F038
:1045000000426FF0FF4C604C02EB0C03A34210D34F
:1045100021F000439C44A4450BD3B0F17E5F18BF4B
:104520005FEA410C50D0B2F1FF4F98BFB3F1FF4F9B
:1045300005D9BDEC068BBDE8104000F088B9B0F19C
:10454000FF4F0FD0C1F3C7527F2A09DB972A11DA38
:10455000C2F19602012303FA02F2531E0B4205D068
:10456000002208E011F0004F55D128E00A4218BFA0
:10457000012200D1022210F5000F13D028B3B0F1B0
:10458000004F26D010F1814F4FD04FF0FE42B2EBDA
:10459000400F94BF01200020012202EBE17188420C
:1045A00039D10CE011F0004F02D0012A38D032E0AE
:1045B000012A02BF9FED350ABDEC068B10BD9FEDB1
:1045C000340ABDEC068B10BD2FE011F0004F0CD16A
:1045D00021E0B1F1FF4F1ED011F5000F05D011F011
:1045E000004F15D00AB1012A08D00220FBF747FF7F
:1045F000BDEC068BBDE8104000F01CB90220FBF7B3
:104600003EFF00F017F9BDEC068BB1EE400A10BD7D
:104610000AB1012A04D0B0EE690ABDEC068B10BDC8
:10462000BDEC068B9FED1B0A10BDBDEC068BB7EEF3
:10463000000A10BD30EE410AB5EE001A9FED172AB0
:1046400000EE413AB6EE001A60EE001A00EE431A90
:1046500061EEC11A9FED101A20EE011A20EE020A37
:104660009FED0F2A01EE820A71EE001A11EE900AF8
:1046700000F500606FF30B0009EE100A31EE491AE5
:1046800031EE00AA9CE50000FFFF3F00000080FF24
:104690000000807F0000008000B0B841D49A38BB91
:1046A0003BAAB84100B510EE101A2DED028B81B077
:1046B000524A6846B2EB410F2ED94FF0E640B0EBBC
:1046C000410F94BF00204FF0FF3000900098B0EEF3
:1046D000408A00286ADB10F0010F4BD068EE080A10
:1046E0009FED471A9FED470A00EE810A9FED461A9B
:1046F00010F0020F00EE801AB7EE000A00EE810AF9
:1047000002BF01B0BDEC028B00BD00BF01B0B1EE35
:10471000400ABDEC028B00BD3C4B21F000429342AD
:1047200041D911F0004FDFED3A0A20EE201ADFEDFB
:10473000390A19BF31EE601A71EE200A31EE201AE3
:1047400071EE600ABDEEE01A11EE100A9FED321A0A
:1047500000F0030000EEC10A9FED301A009000EE59
:10476000C10A9FED2F1A00EEC10A9FED2E1A00EE2E
:10477000C10AABE728EE080A9FED2B1ADFED2B0AE2
:1047800010F0020F40EE410A9FED291A00EE201AA8
:1047900061EE000AB0EE480A08EE200AB6D101B078
:1047A000BDEC028B00BD00F06DF88FE718EE100A2B
:1047B0004000B0F17F4F0DD218EE100AFFF72CFC2D
:1047C000042808BF00F056F8B0EE480A01B0BDEC6E
:1047D000028B00BD09D10120FBF751FE01B0BDECF9
:1047E000028B5DF804EB00F035B801B0B0EE480A7A
:1047F000BDEC028B5DF804EB00F026B8B61F927E8C
:10480000B93AB2BACA9F2A3DDDFFFFBE490E4946FA
:1048100083F9223F0000004B0000C93F00A0FD3992
:104820000020A2331A61342C336D4C39DA82083CF3
:10483000A0AA2ABEDFED030AB7EE001A81EE200A15
:10484000704700000000000030EE000A704730EEB4
:10485000200A7047DFED020A80EEA00A70470000D0
:10486000000000009FED020A20EE000A70470000E1
:10487000000000709FED020A20EE000A7047000061
:10488000000000102DE9F0014FF07F42B2EB410F24
:104890009FBF4FF0FF310160BDE8F00170474FF05E
:1048A000004242EA0123C1F3C752783A551112F08F
:1048B0001F0C434CCCF120067C44C1F3C752A2F13B
:1048C00078024FEA621204EB820254F8254008BFD6
:1048D000D2E9015612D0556804FA0CF425FA06F70D
:1048E0003C43976805FA0CF527FA06F8D26807FAF0
:1048F0000CFCF24045EA08054CEA0206A4FB034C16
:10490000A5FB0352A6FB03631D449D4234BF012651
:1049100000261319334416B1934202D903E093429F
:1049200001D2012200E00022624402F1200C920632
:10493000DC0C42EA443200EE102A5B03DFED210A70
:10494000F8EEC01A00EE103A4FEA9C1C11F0004F2E
:10495000B8EE400AC0F800C020EE201A00EE105A4F
:10496000DFED190AB8EE400A20EE200A71EE810A46
:1049700070EE800A10EE902A02F500626FF30B02CF
:1049800000EE902A70EEE11A31EEC11ADFED101A36
:1049900030EE411A9FED0D0A20EE800A01EE210A49
:1049A0009FED0C1A00EE810A04BFBDE8F0017047CC
:1049B000CCF180510160BDE8F001B1EE400A7047D2
:1049C000E4070000000000360000802C22AAFD2928
:1049D000DB0FC92F0000C92F10B51148002180F846
:1049E000401080F841109FED0F0A80ED110A0E482B
:1049F000FFF7CAFA0D48FFF7C7FA0D48FFF7C4FAE8
:104A00000C48FFF7C1FA0C48FFF7BEFA0B48FFF756
:104A1000BBFA0B48FFF7B8FA0A48FEF759FD10BD7C
:104A20005802002000000000A0020020F002002038
:104A30004003002090030020E00300203004002009
:104A400080040020D00400202DED028B82B0FCF702
:104A50002FFEFEF74BF9FDF707FFFDF7C9FEFDF747
:104A600053FFFDF76DFFFDF77DFEFDF79FFEFEF79F
:104A70000FF9642285498648FEF778FA00219FEDF8
:104A8000855ADFED844A9FED834ADFED823A9FED40
:104A9000823AF0EE082AB0EE082ADFED7E1A9FED8A
:104AA0007D1ADFED7E0A9FED7E0A7E48FFF74AFA07
:104AB000AB2006217C4B0C22CDE9001074497B48C9
:104AC000FEF79CFBFEF778F9FEF76AF9FEF77EF930
:104AD00077490860DFED770A9FED770A042277496E
:104AE0007748FEF7EDFC00219FED6A5ADFED694A39
:104AF0009FED684ADFED673A9FED673ADFED712A77
:104B00009FED702ADFED631A9FED621ADFED610AF7
:104B1000B1EE0C0A6A48FFF715FA00219FED5D5AC5
:104B2000DFED5C4A9FED5B4ADFED5A3A9FED5A3A62
:104B3000F0EE082AB0EE082ADFED561A9FED551A5E
:104B4000DFED610A9FED610A5D485030FFF7FAF929
:104B50009BE05F480068401C5D490860084690ED96
:104B6000000AB8EE400AF1EE080A20EE200ADFED56
:104B7000590A80EE208AB0EE480AFFF793FDF2EE64
:104B8000040A20EE200A544880ED000A9FED410AF5
:104B90004B4880ED560A00BFFEF796F94F49086072
:104BA00008460068008809680989401A00B24C4923
:104BB00008804C490988484200EBD071484AB2F954
:104BC0000020B2EB610F07DA3D48D0F84C01401CE1
:104BD0003B49C1F84C0110E04249088800EBD07114
:104BE0003F4AB2F90020B2EB610F06DD3448D0F83D
:104BF0004C01401E3249C1F84C0138480068018818
:104C00002F48D0F84C01374A128800FB0210364971
:104C1000096801442A48C0F8481190ED520AF8EE9C
:104C2000C00A3048008800EE100AB8EE400A80EE54
:104C3000801AB0EE000A21EE000ADFED2C0A20EE09
:104C4000200A1F4880ED4C0AFEF7B1FB1C4890ED8E
:104C50004B0ABDEEC00A264880ED000A254BA3F1A1
:104C60002802032100901148FEF784FB0F48FEF74D
:104C7000BFFAFEF71DF9002341F2883219461846A3
:104C8000FDF7D4FF0120FCF7F3FB62E7D52D000808
:104C9000D4070020000000006F12833A9A99993ED1
:104CA0008FC2F53C30040020900000205802002004
:104CB00020020020000080460050C34684070020E8
:104CC000D0040020DB0FC940FA7E6A3F5A64BB3E25
:104CD0004400002000007A440400002084000020EA
:104CE000880000208A0000208C000020DB0F494053
:104CF000480000202806002090ED001AB4EEC01AEB
:104D0000F1EE10FA02D280ED000A08E090ED001AF0
:104D1000B4EEE01AF1EE10FA01DDC0ED000A7047C2
:104D2000F0EE400AF5EEC00AF1EE10FA02DDB0EE48
:104D3000600A7047B1EE600AFBE7000021F0004214
:104D4000A2F16052B2F5801F01F0004328BFD2F1FA
:104D50007F6C0BD95FEA001C43EAC20242EB507041
:104D600018BF704728BF20F001007047B2F5801FC0
:104D7000BCBF184670474FEA410C1CF5001F02D219
:104D8000084600F0D7B870B500F009F800000089B7
:104D9000FFF7F6BF4FF00040A0F5800070470EF11E
:104DA000020E2EF0030E5EF8046B364205D4012A83
:104DB00043EB030515F5001F12D8012841EB010C48
:104DC0001CF5001F0CD80ED14FEAD17C15F5001F41
:104DD0000CEB4C0C0CF1020C08BF4CEBD37C04E048
:104DE0004FF0080C01E04FEAD37C0CEB4C0526FA9F
:104DF00005F606F00706B6F1040C06D20EEB860C9B
:104E0000BDE870404CF0010C6047DFE80CF0090B86
:104E100002024FF000414FF00000A1F5002170BDEB
:104E200019461046012851EB010418BFD4F50014AF
:104E300084BF002001F0004170BD0808A0F50011FA
:104E40004FEA31017047000043004FEAD30C4FEAAC
:104E50003C0C43401FBF40070CF1605113F0FE4F64
:104E600070471CF0006F03D100200CF00041704728
:104E70000CF0004343EA507010B540EACC0000F05B
:104E80000EF800BF000000924FEA0001FFF7D5BF07
:104E90004FF000414FF00000A1F5002170470EF1E6
:104EA000020E2EF0030E5EF8044B244204D44FEAA7
:104EB0004102B2F17F4F11D84FEA4003B3F17F4F67
:104EC0000CD80ED14FEAD07CB2F17F4F0CEB4C0CDA
:104ED0000CF1020C08BF4CEBD17C04E04FF0080C45
:104EE00001E04FEAD17C0CEB4C0324FA03F404F00C
:104EF0000704B4F1040C06D20EEB840CBDE810409C
:104F00004CF0010C6047DFE80CF0070802024FF09C
:104F10000040A0F5800010BD0846420018BFD2F145
:104F2000807288BF00F0004010BD4FF04070E1EE8D
:104F3000100A7047FF2141EAD050C00570470006B3
:104F4000101600061016000000000000000001020C
:104F50000304060708090000000001020304000022
:104F600000000000000000000000B33FB2BE7D3A28
:104F700000002E40DFCF513800007E40BF51FABA0A
:104F800000E0A44019DAC3BA00E0C840C2ED8AB913
:104F90000040EB40CD1F2CBA001006412AFFFABAA0
:104FA00000C01541DFCFD13700D024419A97703A25
:104FB0000050334189478E3600404141E75B9D38C0
:104FC00000B04E41C00A98B900A05B41558F943A99
:104FD00000306841DA92C0BA0040744162B3C63A08
:104FE0000000803F00A0853F00908B3F00C0913FB4
:104FF0000030983F00F09E3F00F0A53F0050AD3FCD
:105000000000B53F0000BD3F0060C53F0020CE3F1F
:105010000040D73F00C0E03F00C0EA3F0020F53F1E
:10502000000000007D36AC397D3C3839EBDCF438CB
:10503000320A7E39124C26399B6AED39A4EE833947
:105040007F661E39F6398A392B426539A4821139B7
:105050005B991F39C3EECD39DDE7C637A5A22F39DD
:105060000000803FC3AA853FC2958B3FD3C3913FC9
:10507000F037983F32F59E3FD7FEA53F3F58AD3FF2
:10508000F304B53FA408BD3F2A67C53F8C24CE3F3B
:10509000FD44D73FDFCCE03FC7C0EA3F7D25F53F69
:1050A000000000006E83F9A22915444ED15727FC59
:1050B000C0DD34F5999562DB4190433CAB6351FE12
:1050C000E45000080000002058020000C40100085D
:1050D0001C51000858020020D81E000000020008E1
:1050E000F9F8FFFF016E38C07C4400E043443320F0
:1050F000418B2041295C8F3DE1BA64430863204C19
:10510000F5FFFF706F0462706F310462706F3204DC
:0C5110007A706F3342105201031624F431
:040000050800018965
:00000001FF
